:020000040800F2
:1000000000C0002069560008B1510008B351000833
:10001000B5510008B7510008B951000800000000B0
:10002000000000000000000000000000BB510008BC
:10003000BD51000800000000BF510008C151000878
:10004000B9560008B9560008B9560008B956000854
:10005000B9560008B9560008B9560008B956000844
:10006000B9560008B9560008B9560008B956000834
:10007000B9560008B9560008B9560008B956000824
:10008000B9560008B9560008C9510008D9510008EE
:10009000E9510008B9560008F9510008B95600089E
:1000A000B9560008B9560008B9560008B9560008F4
:1000B000B95600080000000000000000B956000812
:1000C000B95600080952000819520008B95600082C
:1000D000B956000829520008B9560008B956000858
:1000E000B9560008B95600080000000000000000E2
:1000F0000000000000000000000000000000000000
:1001000000000000B956000800000000B9560008C1
:100110000000000000000000B9560008B9560008B1
:10012000B9560008B9560008B9560008B956000873
:10013000B9560008000000000000000000000000A8
:10014000B9560008B9560008B9560008000000006A
:10015000B9560008B9560008B9560008B956000843
:10016000B9560008B9560008B9560008000000004A
:10017000B9560008B9560008000000000000000051
:10018000B9560008B9560008B9560008000000002A
:1001900010B5054C237833B9044B13B10448AFF3C1
:1001A00000800123237010BD8800002000000000A3
:1001B000C46D000808B5034B1BB103490348AFF3F6
:1001C000008008BD000000008C000020C46D000805
:1001D00053B94AB9002908BF00281CBF4FF0FF31AE
:1001E0004FF0FF3000F088B9ADF1080C6DE904CE96
:1001F00000F006F8DDF804E0DDE9022304B0704702
:100200002DE9F047089D0F4604468C46002B48D147
:100210008A42164661D9B2FA82F34BB1C3F1200289
:1002200001FA03FC20FA02F29E4042EA0C0C9C40C8
:100230004FEA164EB7B2BCFBFEF1220C0EFB11CCFE
:1002400042EA0C4201FB07F0904209D9B21801F1D1
:10025000FF3C80F0EE80904240F2EB800239324465
:10026000121AA4B2B2FBFEF00EFB102244EA0244C2
:1002700000FB07F7A74209D9341900F1FF3280F0DB
:10028000DA80A74240F2D7803444023840EA014085
:10029000E41B00211DB1DC400023C5E90043BDE89B
:1002A000F0878B4206D90DB1C5E90001002108464F
:1002B000BDE8F087B3FA83F1002948D1BB4202D3ED
:1002C000824200F20781841A67EB03020120944600
:1002D000002DE4D0C5E9004CE1E7002A00F092804F
:1002E000B2FA82F3002B40F0A8808A1A4FEA164E29
:1002F0001FFA86FC0121200CB2FBFEF70EFB172231
:1003000040EA02420CFB07F0904207D9B21807F10D
:10031000FF3802D2904200F2E2804746121AA4B29D
:10032000B2FBFEF00EFB102244EA02440CFB00FC80
:10033000A44507D9341900F1FF3202D2A44500F2D6
:10034000CB801046A4EB0C0440EA0740A2E7C1F1C1
:1003500020068B4022FA06FC4CEA030C07FA01F453
:1003600020FA06F3F7404FEA1C49234300FA01F84C
:100370001FFA8CFEB7FBF9F01C0C09FB107744EA5E
:10038000074400FB0EF7A74202FA01F20AD91CEB60
:10039000040400F1FF3A80F09B80A74240F298806D
:1003A00002386444E41B9FB2B4FBF9F309FB134425
:1003B00047EA044403FB0EFEA64509D91CEB0404DE
:1003C00003F1FF3780F08280A6457FD9023B644469
:1003D00043EA0040A4EB0E04A0FB02E7BC427346D4
:1003E000B94663D360D05DB1B8EB030264EB090496
:1003F00004FA06F622FA01F31E43CC40C5E9006474
:1004000000214CE76208480842EAC1710B0C43EA3C
:1004100000438AB242EA0342B3FBF6F1E407B44672
:100420003746B6461F23B0FBF6F0D21B41EA004127
:1004300061E7614614E7104628E7C3F1200120FA7E
:1004400001F29E4027FA01F19F403A434FEA164ECF
:100450001FFA86FCB1FBFEF70EFB1710110C41EAE8
:10046000004107FB0CF8884504FA03F43AD97118E7
:1004700007F1FF3001D288451FD8A1EB0801B1FB7D
:10048000FEF808FB0CF70EFB181192B242EA01428B
:10049000BA422FD2B21808F1FF31C6D2BA42C4D242
:1004A000A8F102013244C0E7F0459CD2BEEB020342
:1004B00067EB0C070138B94695E7A6EB08084144FD
:1004C000B81EB1FBFEF808FB0CF7DCE73B467FE704
:1004D000504667E70846FBE63444023832E7023FFD
:1004E00032441BE7A1EB08013846B1FBFEF808FBDC
:1004F0000CF7C8E7414698E7704700BF10F8012B9A
:1005000011F8013B012A28BF9A42F7D0D01A704750
:10051000034613F8012B002AFBD1181A0138704743
:1005200001F0FF01102A2BDB10F0070F08D010F8A4
:10053000013B013A8B422DD010F0070F42B3F6D1A8
:10054000F0B441EA012141EA014122F007047FF0C1
:1005500000070023F0E80256083C85EA010586EA18
:10056000010685FA47F5A3FA87F586FA47F6A5FA54
:1005700087F68EB9EED1F0BC01F0FF0102F0070260
:1005800032B110F8013B013A83EA010313B1F8D10B
:100590000020704701387047002D06BF35460338EC
:1005A000073815F0010F07D1013015F4807F02BF25
:1005B000013015F4C03F0130F0BC0138704700BF76
:1005C000002310B50446C0E90033C0E9043383605A
:1005D00081814366C2818361194608225C3000F044
:1005E000F9F80D4B63620D4BA3620D4BE3620D4BAB
:1005F00023630D4B24629C4206D003F168029442AF
:1006000002D0D0339C4205D104F15800BDE810401F
:1006100000F052B910BD00BF490700086F0700087D
:10062000A7070008CD070008A4000020024A0349DC
:10063000034800F06BB800BF00000020B50B0008B5
:100640001000002041680C4B994210B5044601D0BF
:1006500000F0B0FAA168094B994202D0204600F0A0
:10066000A9FAE168064B994204D02046BDE8104043
:1006700000F0A0BA10BD00BFA40000200C010020B3
:10068000740100200C4B0D4A0D4810B504211A606E
:100690000022FFF795FF0A4B01221C46092103F1B6
:1006A0006800FFF78DFF04F1D0000222BDE8104082
:1006B0001221FFF785BF00BFDC0100202D060008D6
:1006C000A4000020014800F0F8B800BFE5010020B8
:1006D000014800F0F3B800BFE501002010B5044662
:1006E000FFF7F0FF236A1BB1BDE81040FFF7F0BF32
:1006F000044B2362044B1B68002BF5D1FFF7C2FFAC
:10070000F2E700BF45060008DC0100202DE9F843B0
:100710000746884614460026D4E90195B9F1010937
:1007200005D52468002CF7D13046BDE8F883AB89A5
:10073000012B07D9B5F90E30013303D029463846CD
:10074000C04706436835E9E710B50C46B1F90E100D
:1007500000F06AF80028ABBF636DA3891B1823F46F
:100760008053ACBF6365A38110BD002070472DE9A5
:10077000F0411F468B89DB0505460C46164605D51C
:10078000B1F90E100223002200F03CF8A389B4F95D
:100790000E1023F48053A38132463B462846BDE821
:1007A000F04100F053B810B50C46B1F90E1000F04E
:1007B00029F8B4F90C30421C0BBF23F4805343F4E6
:1007C0008053A381A38118BF606510BDB1F90E10DD
:1007D00000F008B802440346934200D1704703F882
:1007E000011BF9E738B5064D0023044608462B6087
:1007F00004F02EFF431C02D12B6803B1236038BDE7
:10080000E001002038B5074D044608461146002295
:100810002A601A4604F026FF431C02D12B6803B15C
:10082000236038BDE001002038B5074D0446084676
:10083000114600222A601A4604F0ECFE431C02D145
:100840002B6803B1236038BDE001002038B5074DA7
:1008500004460846114600222A601A4604F0EAFEC1
:10086000431C02D12B6803B1236038BDE001002096
:1008700070B50D4B0D4D5B1B9C100026A64209D197
:1008800006F0A0FA0A4D0B4B5B1B9C100026A642FB
:1008900005D170BD55F8043B98470136EEE755F891
:1008A000043B98470136F2E758700008587000087A
:1008B000587000085C70000870477047704700006F
:1008C00038B50546002941D051F8043C0C1F002BD7
:1008D000B8BFE41800F0E0F81D4A136833B963604C
:1008E00014602846BDE8384000F0DCB8A34208D9BF
:1008F000206821188B4201BF19685B6809182160C4
:10090000EDE71A465B680BB1A342FAD9116850189B
:10091000A0420BD120680144501883421160E0D1FD
:1009200018685B68536008441060DAE702D90C234A
:100930002B60D6E7206821188B4204BF19685B68DA
:10094000636004BF091821605460CAE738BD00BF66
:10095000EC01002070B50F4E0C463168054611B908
:1009600000F050F930602146284600F04BF9431C56
:1009700003D14FF0FF34204670BDC41C24F00304A3
:10098000A042F8D0211A284600F03CF90130F2D1FB
:10099000EFE700BFE80100202DE9F843CD1C25F06A
:1009A000030508350C2D38BF0C25002D064601DB4C
:1009B000A94204D90C2333600020BDE8F883DFF896
:1009C000D48000F069F8D8F800301C4644BB2946B2
:1009D0003046FFF7BFFF431C044658D1D8F800400B
:1009E0002746002F43D1002C4BD023683946304690
:1009F00004EB030900F006F9814542D121686D1A24
:100A000029463046FFF7A6FF01303AD023682B4431
:100A10002360D8F800305A6862BBC8F800700FE055
:100A20002268521B20D40B2A17D96119A3422560D2
:100A300018BF5960636808BFC8F8001062514B6066
:100A4000304600F02FF804F10B00231D20F00700C2
:100A5000C21A1CBF1B1AA350AFE76268A3420CBFA7
:100A6000C8F800205A60EBE723466468AEE73C46CE
:100A70007F68B6E71A465B68A342FBD10023536048
:100A8000DEE70C233360304600F00CF894E7056095
:100A9000D6E700BFEC0100200148FFF70EBF00BF02
:100AA000E40100200148FFF709BF00BFE401002076
:100AB000B1F90C202DE9F041160705460C4651D43A
:100AC0004B68002B02DC0B6C002B49DDE66A002E24
:100AD00046D0002312F480522F682B6031D0626D13
:100AE000A389590705D56368D21A636B0BB1236CD0
:100AF000D21A0023E66A216A2846B047421CB4F99C
:100B00000C3006D129681D2946D8294ACA40D60783
:100B100042D500226260D9042269226004D5421CB9
:100B200001D12B6803B96065616B2F60C1B104F11D
:100B30004403994202D02846FFF7C2FE00236363B4
:100B40000EE0216A01232846B0470246501CC7D157
:100B50002B68002BC4D01D2B01D0162B1AD12F606F
:100B600000201EE00F69002FFAD093070E6808BF1F
:100B70004B690F6018BF0023A6EB07088B60B8F124
:100B8000000FEDDD216AA66A43463A462846B04783
:100B9000002808DCB4F90C3043F04003A3814FF087
:100BA000FF30BDE8F0810744A8EB0008E7E700BF8D
:100BB0000100402038B50B6905460C4613B90025E5
:100BC000284638BD18B1036A0BB9FFF787FDB4F9A1
:100BD0000C30002BF3D0626ED00704D4990502D4F8
:100BE000A06DFFF76AFE28462146FFF761FF636E9E
:100BF000DA070546E4D4A3899B05E1D4A06DFFF78D
:100C00005DFEDDE738B5064D0023044608462B603F
:100C100004F0CCFC431C02D12B6803B1236038BD27
:100C2000E0010020034AD2F8883043F47003C2F890
:100C30008830704700ED00E010B430300B0A9B00A4
:100C400003F00C03C45801F01F014FF01F0C0CFA05
:100C500001FC24EA0C0CC2F384628A404CEA0202D2
:100C6000C2505DF8044B704710B414304B0E9B001B
:100C700003F00403C458C1F304514FF0070C0CFAFD
:100C800001FC24EA0C0C8A404CEA0202C2505DF8D6
:100C9000044B704730B583B000230193002800F067
:100CA000D0800446436D13B323689A6812F0005F46
:100CB00005D09A6822F0204222F03F029A60226812
:100CC000936813F0805F1FD1936823F0104323F0E3
:100CD0003F0343F0805393605B4B1B689B095B4A67
:100CE000A2FB03239B0901335B00019309E004F09D
:100CF000BBFA0023A36584F85030D5E7019B013B84
:100D00000193019B002BF9D12268936813F0805F57
:100D100070D1636D43F010036365A36D43F001036D
:100D2000A3650120936813F0040300D00123616DD3
:100D300011F0100F7ED1002B7CD1636D23F48173F1
:100D400043F002036365936813F0010F0BD1404B2E
:100D50009B6813F0010F06D163683E498A6822F44C
:100D60007C1213438B60627E636B43EA4233E2681A
:100D70001343A268134394F8202043EA0243012A54
:100D80003AD0A26A22B102F47072E16A0A431343B4
:100D90002168CD68304A2A401A43CA6022689368A5
:100DA00013F0080300D00123ABB9237E94F8301070
:100DB000490041EA8331D36823F4804323F00203DE
:100DC0000B43D36094F83830012B1AD02268136992
:100DD00023F0010313612369012B22D02268136BD6
:100DE00023F00F031363636D23F0030343F0010348
:100DF000636524E0002095E7626A013A43EA4243D2
:100E0000BFE721680B696FF38A03E26B256C2A4305
:100E1000656C2A43A56C2A43134343F001030B611D
:100E2000D9E721680B6B23F00F03E269013A134302
:100E30000B63D8E7636D43F010036365012003B0D3
:100E400030BD0120FBE700BF5C000020632D3E05A4
:100E5000000004500003045007C0F0FF70477047C3
:100E6000704770B5044603681E685D6816F0020F8F
:100E700010D015F0020F0DD0436D13F0100F03D1F9
:100E8000436D43F400634365204600F01FFB236875
:100E900002221A6016F0040F02D015F0040F05D1DB
:100EA00016F0080F3AD015F0080F37D0636D13F025
:100EB000100F03D1636D43F4007363652368DA6830
:100EC00012F4406F24D1DA6812F4005F20D11A685E
:100ED00012F0080F1CD09A6812F0040F10D15A6853
:100EE00022F00C025A60636D23F480736365636DB6
:100EF00013F4805F0CD1636D43F00103636507E079
:100F0000636D43F010036365A36D43F00103A365B4
:100F10002046FFF7A3FF23680C221A6016F0200F6B
:100F200002D015F0200F05D116F0400F4CD015F06F
:100F3000400F49D0636D13F0100F03D1636D43F47C
:100F4000005363652368DA6C12F0C00F2AD10121C7
:100F5000DA6812F4406F27D10120DA6871B312F019
:100F6000007F03D050B312F4005F27D1196811F04D
:100F7000400F23D012F4001F20D19A6812F0080FFE
:100F800014D15A6822F060025A60636D23F48053D2
:100F90006365636D13F4807F10D1636D43F00103CB
:100FA00063650BE00021D3E70020D6E7636D43F0D3
:100FB00010036365A36D43F00103A365204600F0B1
:100FC00081FA236860221A6016F0800F02D015F0B3
:100FD000800F2DD116F4807F02D015F4807F32D19E
:100FE00016F4007F02D015F4007F38D116F0100FF0
:100FF00017D015F0100F14D0636B23B12368DB6892
:1010000013F0010F0AD0636D43F480636365A36D31
:1010100043F00203A3652046FFF722FF2368102256
:101020001A6016F4806F02D015F4806F23D170BD62
:10103000636D43F4803363652046FFF710FF236838
:1010400080221A60C6E7636D43F40033636520466F
:1010500000F03AFA23684FF480721A60C0E7636DBB
:1010600043F480236365204600F02FFA23684FF491
:1010700000721A60BAE7636D43F480436365A36D41
:1010800043F00803A36523684FF480621A6020468A
:1010900000F019FACBE70000F0B583B0002301930C
:1010A00090F85030012B00F0038204460D460123D6
:1010B00080F850300068836813F0040F09D0636D26
:1010C00043F0200363650120002384F8503003B00F
:1010D000F0BD4968052907D8023903294ED8DFE851
:1010E00001F0024F484A0C212A68FFF7A5FD20684D
:1010F000836813F0040300D00123826812F0080211
:1011000000D001220BB9002A3CD02268936813F06A
:10111000010F17D12B68E868D2F8B010C3F312069C
:1011200021EA060100F0180CA84820FA0CF0034050
:10113000C3F312030B43C2F8B030EA68A44B9A42DF
:1011400000F0A5802B68A34A134200F0AD81A24AAB
:10115000926802F0E070A1498B4200F05881A049EA
:101160008B4200F07A819F498B4200F08A810020F7
:10117000AAE71821B8E74FF48071B5E70621B3E775
:101180001221B1E7AA682968FFF76EFD6969226834
:10119000D368C3F3C1035B009940286904280ED0CB
:1011A0002E68603252F820708F4B3B4006F0F846B4
:1011B00031430B4343F0004342F82030A5E7136E60
:1011C000116EC1F384612B68C3F3120080BBC3F3BB
:1011D0008463994234D021684B6E4A6EC2F38462B4
:1011E0002B68C3F3120080BBC3F384639A4234D0EC
:1011F00021688B6E8A6EC2F384622B68C3F312007F
:1012000080BBC3F384639A4234D02168CB6ECA6E2C
:10121000C2F384622B68C3F3120080BBC3F3846300
:101220009A427FF472AFCB6E23F00043CB666CE73B
:1012300093FAA3F313B1B3FA83F3CAE72023C8E701
:10124000136E23F000431366C5E793FAA3F313B1BB
:10125000B3FA83F3CAE72023C8E74B6E23F00043B9
:101260004B66C5E793FAA3F313B1B3FA83F3CAE766
:101270002023C8E78B6E23F000438B66C5E793FA03
:10128000A3F313B1B3FA83F3CAE72023C8E72068B6
:101290002B68C3F312063EBB9A0E013202F01F0206
:1012A000092A8CBF00220122002A55D05EBB990E6C
:1012B0000131890601F0F8418EBB4FEA936C0CF1C5
:1012C000010C0CF01F0C012202FA0CF21143AEBB10
:1012D0009B0E013303F01F0303EB43031B0519436C
:1012E000AA68FFF7C1FC2DE793FAA3F24AB1B2FA5C
:1012F00082F2013202F01F02092A8CBF0022012271
:10130000D2E72022F5E793FAA3F131B1B1FA81F1E6
:101310000131890601F0F841CEE72021F8E793FA80
:10132000A3F24AB1B2FA82F2013202F01F024FF088
:10133000010C0CFA02F2C9E72022F5E793FAA3F3B5
:1013400043B1B3FA83F3013303F01F0303EB430309
:101350001B05C4E72023F6E7E6B9990E013189069B
:1013600001F0F84116BB4FEA936C0CF1010C0CF044
:101370001F0C012202FA0CF21143BEBB9B0E01337B
:1013800003F01F0303EB43031E3B1B0543F00073F5
:101390001943A5E793FAA3F131B1B1FA81F1013113
:1013A000890601F0F841DDE72021F8E793FAA3F27E
:1013B0004AB1B2FA82F2013202F01F024FF0010C80
:1013C0000CFA02F2D8E72022F5E700BFFFFF070082
:1013D00000007F400000088000030450000052C756
:1013E000000084CB0100008000F0FF0393FAA3F318
:1013F0005BB1B3FA83F3013303F01F0303EB430341
:101400001E3B1B0543F00073C2E72023F3E712F4F1
:10141000000F7FF4A4AE2268264B9A4201D0002030
:1014200052E640F4000324498A6822F0E072134334
:101430008B60224B1B689B09214AA2FB03239B095B
:10144000013303EB43039B000193019B1BB1019B01
:10145000013B0193F9E7002036E612F0807F7FF42C
:1014600082AE2268134B9A4201D000202CE640F055
:10147000807311498A6822F0E07213438B60002068
:1014800022E612F4800F11D122680A4B9A4201D051
:10149000002019E640F4800307498A6822F0E072D0
:1014A00013438B6000200FE600200DE600200BE6C2
:1014B00002200CE600000450000304505C000020F1
:1014C000632D3E05704770477047704770477047FF
:1014D00010B50A4B4FF0FF329A63DA6300249C6325
:1014E000DC631A641C649A629C62DA62DC621A63CE
:1014F0001C63FFF7ECFF204610BD00BF0010024048
:10150000104B1B780BB90120704710B504460E4AEA
:1015100010684FF47A72B2FBF3F3B0FBF3F001F012
:101520009BFC68B90F2C01D901200AE0002221465A
:101530004FF0FF3001F078FC044B1C60002000E00D
:10154000012010BD600000205C000020640000202D
:1015500010B5032001F056FC0F20FFF7D1FF10B1AA
:101560000124204610BD044603F066FEF9E70000A2
:10157000034B1B78034A11680B441360704700BF8C
:1015800060000020F0010020014B1868704700BF88
:10159000F001002030B583B00446204B9B6D13F062
:1015A000805F0BD001F08CFBB0F5007F17D0802C52
:1015B0001FD82DD0702C2DD000211BE0174DAB6D06
:1015C00043F08053AB65AB6D03F080530193019BF7
:1015D00001F076FBAB6D23F08053AB65E4E7802C24
:1015E00003D9A02C03D9022104E0002102E001214B
:1015F00000E003210A4A136823F007030B4313603A
:10160000136803F007038B4206D1002003B030BDFE
:101610000221EFE70121EDE70120F7E7001002408A
:101620000020024038B5344A136843F001031360C8
:10163000FFF7AAFF0446304B1B6813F0020F07D1D7
:10164000FFF7A2FF001B0228F5D90324204638BD6E
:10165000294A136823F0F00343F06003136000236A
:101660009360264B264A1A60264B1868FFF748FFFE
:10167000044608B10124E9E7FFF786FF05461E4B43
:101680009B6813F00C0F08D0FFF77EFF401B41F260
:1016900088339842F3D90324D8E7174A11681A4BC4
:1016A0000B401360FFF770FF0546134B1B6813F0E8
:1016B000206F06D0FFF768FF401B0228F5D90324EE
:1016C000C4E70D4B0022DA60D96841F48051D9603B
:1016D0001A61196941F480511961196821F4802156
:1016E00019609A614FF0FF321A62D3F8942042F4E5
:1016F0000002C3F89420A9E7001002405C0000201B
:1017000000093D0064000020FFF4FEFA254A9368BA
:10171000D26802F0030213F00C0309D00C2B05D0A1
:10172000042B3BD0082B3BD000200FE0012AF7D13F
:101730001C4A126812F0080F0CD11A4AD2F89420F1
:10174000C2F30322184951F8220013B10C2B06D022
:1017500000207047134A1268C2F30312F2E7114BDC
:10176000DB6803F00303022B16D0032B00D10F48D4
:101770000C49CA68C2F302120132CB68C3F30623D4
:1017800000FB03F3B3FBF2F3C868C0F34160013020
:101790004000B3FBF0F070470548E9E704487047A4
:1017A0000248704700100240EC6D000800127A00F9
:1017B0000024F400002800F01C83F0B583B0044638
:1017C000964B9D6805F00C05DE6806F0030603687D
:1017D00013F0100F5AD0E5B10C2D18D0A369002BCF
:1017E00000F0BB808D4A136843F001031360FFF7DC
:1017F000CBFE0746894B1B6813F0020F40F09A801E
:10180000FFF7C2FEC01B0228F4D90320FCE2012E20
:10181000E4D1824B1B6813F0020F03D0A369002BA5
:1018200000F0E982206A7D4B1B6813F0080F5BD043
:101830007A4B1B6803F0F00398425CD8774B1A6828
:1018400042F008021A601A6822F0F002216A0A4384
:101850001A605A6822F47F42E16942EA01225A6022
:10186000002D60D0FFF752FF6C4B9B68C3F303134E
:101870006B4AD35C03F01F03D8406A4B18606A4B75
:101880001868FFF73DFE002840F0BE82236813F081
:10189000010F00F08180082D75D00C2D71D0636888
:1018A000B3F5803F00F09780B3F5A02F00F099804A
:1018B0005A4B1A6822F480321A601A6822F4802285
:1018C0001A606368002B00F09980FFF75DFE074601
:1018D000524B1B6813F4003F5ED1FFF755FEC01B4F
:1018E0006428F5D903208FE24C4BD3F894301B09C0
:1018F00003F0F003A0E7FFF74DFE002840F07D82E3
:10190000464B1A6842F008021A601A6822F0F00288
:10191000216A0A431A605A6822F47F42E16942EA66
:1019200001225A609EE7206AFFF734FE002899D012
:10193000012069E2394B1A6842F008021A601A68FD
:1019400022F0F002216A0A431A605A6822F47F42A8
:10195000E16942EA01225A6098E7304A136823F0AD
:1019600001031360FFF710FE07462C4B1B6813F0B2
:10197000020F8BD0FFF708FEC01B0228F5D9032009
:1019800042E2032E8BD1254B1B6813F4003F03D09A
:101990006368002B00F03382236813F0020F58D0E5
:1019A000042D45D00C2D41D0E368002B77D01B4A85
:1019B000136843F480731360FFF7E6FD0646174B88
:1019C0001B6813F4806F61D1FFF7DEFD801B0228D6
:1019D000F5D9032018E2114A136843F480331360E9
:1019E0006FE703F18043A3F53C331A6842F4802289
:1019F0001A601A6842F480321A6062E7FFF7C4FD89
:101A00000746064B1B6813F4003FC5D0FFF7BCFD2B
:101A1000C01B6428F5D90320F6E100BF0010024086
:101A2000246E00085C00002064000020022EBBD160
:101A3000A44B1B6813F4806F03D0E368002B00F005
:101A4000E081A04A536823F0F853216943EA016317
:101A50005360236813F0080F4CD063699BB3994A15
:101A6000D2F8943043F00103C2F89430FFF78CFDB4
:101A70000646944BD3F8943013F0020F3AD1FFF797
:101A800083FD801B0228F4D90320BDE18D4A5368F1
:101A900023F0F853216943EA01635360D9E7894A87
:101AA000136823F480731360FFF76EFD0646854BC1
:101AB0001B6813F4806FCCD0FFF766FD801B0228F3
:101AC000F5D90320A0E17F4AD2F8943023F0010336
:101AD000C2F89430FFF758FD06467A4BD3F894309D
:101AE00013F0020F06D0FFF74FFD801B0228F4D938
:101AF000032089E1236813F0040F7AD0714B9B6DAA
:101B000013F0805F36D16F4B9A6D42F080529A6528
:101B10009B6D03F080530193019B01266A4B1B6868
:101B200013F4807F28D0A368012B39D0052B3FD038
:101B3000644BD3F8902022F00102C3F89020D3F830
:101B4000902022F00402C3F89020A368002B3DD01F
:101B5000FFF71AFD07465B4BD3F8903013F0020FE6
:101B600046D1FFF711FDC01B41F288339842F2D9EC
:101B7000032049E10026D1E7534A136843F48073F8
:101B80001360FFF701FD07464F4B1B6813F4807F7E
:101B9000C9D1FFF7F9FCC01B0228F5D9032033E1B6
:101BA000484AD2F8903043F00103C2F89030CCE7B5
:101BB000444BD3F8902042F00402C3F89020D3F8AD
:101BC000902042F00102C3F89020BEE7FFF7DCFC52
:101BD00007463C4BD3F8903013F0020F08D0FFF7C4
:101BE000D3FCC01B41F288339842F2D903200BE1A9
:101BF000E6B9236813F0200F35D0636AE3B1314AA8
:101C0000D2F8983043F00103C2F89830FFF7BCFCDB
:101C100006462C4BD3F8983013F0020F23D1FFF770
:101C2000B3FC801B0228F4D90320EDE0254A936D14
:101C300023F080539365DCE7224AD2F8983023F0F2
:101C40000103C2F89830FFF79FFC06461D4BD3F8FE
:101C5000983013F0020F06D0FFF796FC801B022885
:101C6000F4D90320D0E0A36A002B00F0CC80022B33
:101C700017D00C2D00F0CC80124A136823F080732B
:101C80001360FFF781FC04460E4B1B6813F0007FC6
:101C900000F0A880FFF778FC001B0228F4D903208D
:101CA000B2E0084BDB6803F00301E26A91420DD019
:101CB0000C2D00F0AB80034B1B6813F0806F2FD00E
:101CC0000120A1E0001002400070004003F070020B
:101CD000216B0139B2EB011FEAD103F4FE42616BC3
:101CE000B2EB012FE4D103F07842A16BB2EBC16FEC
:101CF000DED103F4C001E26B5208013AB1EB425F5E
:101D0000D6D103F0C063226C5208013AB3EB426FA4
:101D1000CED1404B1B6813F0007F49D0002073E008
:101D20003C4A136823F080731360FFF72DFC0546CF
:101D3000384B1B6813F0007F06D0FFF725FC401BD3
:101D40000228F5D903205FE0324AD36832491940AE
:101D5000E36A206B013843EA0013606B43EA002317
:101D6000E06B4008013843EA4053206C40080138DA
:101D700043EA4063A06B43EAC0631943D160136830
:101D800043F080731360D36843F08073D360FFF730
:101D9000FBFB04461F4B1B6813F0007F06D1FFF7C7
:101DA000F3FB001B0228F5D903202DE000202BE0D7
:101DB000184B1A6842F080721A60DA6842F080723A
:101DC000DA60FFF7E1FB0446124B1B6813F0007F5B
:101DD00006D1FFF7D9FB031B022BF5D9032013E033
:101DE000002011E00B4AD1680C4B0B40D36000205F
:101DF0000AE001207047012006E0012004E00120F4
:101E000002E0012000E0002003B0F0BD0120FBE76C
:101E10000120F9E7001002408C809D01FCFFEEFEDE
:101E2000002800F0AF8070B50D460446594B1B6882
:101E300003F007038B420BD2564A136823F00703C3
:101E40000B431360136803F007038B4240F09C8040
:101E5000236813F0020F0CD0A2684F4B9B6803F06D
:101E6000F0039A4205D94C498B6823F0F0031A43DA
:101E70008A60236813F0010F39D06368032B09D0FF
:101E8000022B26D063BB444A126812F0020F06D11F
:101E9000012076E0404A126812F0007F76D03E4979
:101EA0008A6822F0030213438B60FFF76DFB06463E
:101EB000394B9B6803F00C036268B3EB820F16D0BA
:101EC000FFF762FB801B41F288339842F0D9032070
:101ED00057E0314A126812F4003FE0D1012050E08F
:101EE0002D4A126812F4806FD9D1012049E023688D
:101EF00013F0020F0CD0A268274B9B6803F0F0038D
:101F00009A4205D224498B6823F0F0031A438A6071
:101F1000204B1B6803F00703AB420AD91D4A136824
:101F200023F007032B431360136803F00703AB424E
:101F30002ED1236813F0040F06D0174A936823F4B8
:101F4000E063E1680B439360236813F0080F07D048
:101F5000114A936823F46053216943EAC1039360F3
:101F6000FFF7D4FB0C4B9B68C3F303130B4AD35C02
:101F700003F01F03D8400A4B18600A4B1868FFF79C
:101F8000BFFA70BD012070470120FAE70120F8E791
:101F90000120F6E70020024000100240246E0008F5
:101FA0005C00002064000020014B1868704700BFEF
:101FB0005C00002008B5FFF7F7FF054B9B68C3F3F3
:101FC0000223044AD35C03F01F03D84008BD00BFBE
:101FD000001002401C6E000808B5FFF7E5FF054B36
:101FE0009B68C3F3C223044AD35C03F01F03D840A9
:101FF00008BD00BF001002401C6E0008F8B5044682
:102000000D46594BDB6813F0030F18D0564BDB68B5
:1020100003F003030268934202D001263046F8BD64
:10202000002A00F09C80504BDB68C3F3021301339D
:102030004268934201D00126F0E7002619E00368C8
:10204000022B55D0032B5AD0012B40F08A80464AF0
:10205000126812F0020F5ED04348C26822F0730289
:102060006168013943EA01131343C3600026002E5F
:10207000D4D13D4A136823F080631360FFF784FADC
:102080000746394B1B6813F0006F05D0FFF77CFA49
:10209000C31B022BF5D90326002EBFD1002D3CD146
:1020A00031490B6923F0784323F4FE43A068E268CA
:1020B000D20642EA002213430B612B4A136843F015
:1020C00080631360FFF760FA0546274B1B6813F027
:1020D000006F05D1FFF758FA401B0228F5D90326F7
:1020E000002E9BD1204A1369A1690B43136195E728
:1020F0001D4A126812F4806FAED101268EE71A4A8B
:10210000126812F4003FA7D1174A126812F4802F08
:10211000A2D1012682E70126A9E7012D0FD012489E
:10212000026922F0C06222F4FE42A16863695B0882
:10213000013B5B0643EA01231A430261BDE70A48FB
:10214000026922F4C00222F4FE42A16823695B08FE
:10215000013B5B0543EA01231A430261ADE7012617
:102160005CE701265AE700BF001002402DE9F0416C
:1021700082B00446036813F4006F26D0436CB3F5B5
:10218000000F06D0B3F5400F1DD09BB10126374696
:102190001DE0B34AD36843F48033D3600027B04ACC
:1021A000D2F8883023F44003616C0B43C2F88830C6
:1021B00000260CE000210430FFF720FF074600282E
:1021C000EDD0064603E00027E9E7002637462368FE
:1021D00013F4003F6BD0A24B9B6D13F0805F4CD18A
:1021E0009F4B9A6D42F080529A659B6D03F080532D
:1021F0000193019B4FF001089A4A136843F48073DE
:102200001360FFF7C1F90546964B1B6813F4807FF6
:1022100005D1FFF7B9F9401B0228F5D90327002F94
:1022200040D18F4BD3F8903013F4407318D0A26D87
:102230009A4212D08A4AD2F8903023F44073D2F8EE
:10224000901041F48031C2F89010D2F8901021F42F
:102250008031C2F89010C2F8903013F0010F0FD106
:10226000002F40F0E3807E4AD2F8903023F4407390
:10227000A16D0B43C2F8903015E04FF00008BBE7AA
:10228000FFF782F90546764BD3F8903013F0020F32
:10229000E6D1FFF779F9401B41F288339842F2D931
:1022A0000327DDE73E46B8F1000F40F0C180236808
:1022B00013F0010F08D06A4AD2F8883023F00303E4
:1022C000216A0B43C2F88830236813F0020F08D04C
:1022D000634AD2F8883023F00C03616A0B43C2F8DA
:1022E0008830236813F0040F08D05D4AD2F8883094
:1022F00023F03003A16A0B43C2F88830236813F03F
:10230000200F08D0564AD2F8883023F44063E16A9F
:102310000B43C2F88830236813F4007F08D0504A7A
:10232000D2F8883023F44023E16B0B43C2F88830A5
:10233000236813F4806F08D0494AD2F8883023F418
:102340004013216C0B43C2F88830236813F0400F10
:1023500008D0434AD2F8883023F44053216B0B4312
:10236000C2F88830236813F0800F08D03C4AD2F8B6
:10237000883023F44043616B0B43C2F888302368F4
:1023800013F4807F08D0364AD2F8883023F44033E3
:10239000A16B0B43C2F88830236813F4002F0FD0D1
:1023A0002F4AD2F8883023F04063A16C0B43C2F867
:1023B0008830A36CB3F1006F40D0B3F1806F42D08E
:1023C000236813F4802F0FD0254AD2F8883023F0E9
:1023D0004063E16C0B43C2F88830E36CB3F1006FEB
:1023E00039D0B3F1806F3FD0236813F4804F0CD005
:1023F0001B4AD2F8883023F04053216D0B43C2F8BA
:102400008830236DB3F1805F36D0236813F4004F1A
:1024100008D0134AD2F8883023F08043616D0B4313
:10242000C2F88830304602B0BDE8F0813E463AE757
:102430000B4A936D23F08053936538E7D36843F4D8
:102440008013D360BCE70121201DFFF7D7FD0028D2
:10245000B6D00646B4E7D36843F48013D360C3E72D
:1024600000100240007000400121201DFFF7C6FD52
:102470000028B9D00646B7E70221201DFFF7BEFDB0
:102480000028C2D00646C0E710B4064C616941F08E
:10249000010161610260BFF36F8F43605DF8044B1F
:1024A000704700BF00200240094A536943F480236B
:1024B0005361EFF3108C72B6402351F8042B40F8AF
:1024C000042B013B13F0FF03F7D18CF31088704706
:1024D00000200240094B5B69002B01DB00207047A4
:1024E000064B074A9A6002F188329A605B69002BBA
:1024F00001DB002070470120704700BF0020024030
:1025000023016745034A536943F0004353610020A8
:10251000704700BF0020024038B50446FFF734F88A
:102520000546144B1B6913F4803F09D0B4F1FF3FFB
:10253000F7D0FFF729F8401BA042F2D3032015E0A3
:102540000C4B1B690C4A134009D10A4B1B6913F051
:10255000010F0CD0074B01221A61002006E0074949
:102560004A681A434A60034A1361012038BD0020BB
:10257000FCE700BF00200240FAC302006800002010
:102580002DE9F0411646284A1278012A49D004461E
:102590000D469846244B01221A704CF25030FFF73A
:1025A000BBFF074608BB204B00225A601F4B1B682D
:1025B00013F4806F1FD01D4A136823F480631360E7
:1025C000194B02221A77D4B1631E012B1ED90024A5
:1025D0004CF25030FFF7A0FF074624B1134A53696D
:1025E00023EA0403536100F047F80F4B00221A70EE
:1025F0003846BDE8F0810C4B00221A77E3E73246FB
:1026000043462846FFF740FF0124E1E731462846CC
:10261000FFF74AFF022C01D00024D9E74FF48024B1
:10262000D6E70227E4E700BF680000200020024050
:1026300010F0010F04D0054A536943F004035361BD
:10264000024A536943F480335361704700200240CB
:10265000084B5A6922F47E72C00000F4FF60024306
:102660005A615A6942F002025A615A6942F4803250
:102670005A61704700200240164B1A7FD3B2012ADC
:1026800001D0032B10D1144A116821F4007111609C
:10269000116841F400611160116821F4006111605A
:1026A000116841F400711160023BDBB2012B03D9C8
:1026B000084B00221A777047074B1A6842F4805281
:1026C0001A601A6822F480521A601A6842F4806212
:1026D0001A60EDE76800002000200240F8B5394B91
:1026E0001B78012B6BD004460E46364B01221A7024
:1026F0004CF25030FFF710FF074600285AD1314BFB
:1027000000225A60304B1B6813F4007F2FD02E4BF1
:102710001B6813F4806F26D02B4A136823F4806360
:102720001360284B03221A772368012B31D04FF016
:10273000FF333360A568A368E2681344AB4237D91E
:1027400061682846FFF784FF4CF25030FFF7E4FE43
:102750001D4A536923F47E7323F002035361074635
:1027600028BB0135E7E7174B01221A77DCE7164B48
:102770001B6813F4806F08D0134A136823F4806336
:102780001360104B02221A77CEE70E4B00221A7705
:10279000CAE76068FFF74CFF4CF25030FFF7BCFE11
:1027A0000746094A536923F00403536100E035608A
:1027B000FFF762FF034B00221A703846F8BD02276C
:1027C000FBE700BF6800002000200240F0B583B0A6
:1027D000002362E085685E000324B44025EA040516
:1027E000CC68B4402C438460456825EA0C054C68ED
:1027F000C4F300149C402C4344605FE0DD080835BE
:1028000050F8254003F0070C4FEA8C0C4FF00F0EE8
:102810000EFA0CFE24EA0E0E0C6904FA0CF444EADB
:102820000E0440F8254060E0042400E0002404FA8F
:102830000EF42C430CF1020C524D45F82C40524C36
:10284000A568D44325EA02064F6817F4801F01D01B
:1028500042EA05064C4DAE60ED6804EA05064F6895
:1028600017F4001F01D042EA0506474DEE606D687F
:1028700004EA05064F6817F4003F01D042EA050656
:10288000414D6E602D682C404E6816F4803F01D09B
:1028900042EA05043C4A146001330A6832FA03F440
:1028A0006ED04FF0010C0CFA03FC1CEA0202F3D0CC
:1028B0004C6804F00304013C012C8BD94C6804F0F3
:1028C0000304032C0CD0C4685D004FF0030C0CFA19
:1028D00005FC24EA0C0C8C68AC4044EA0C04C4608F
:1028E0004C6804F00304022C88D004684FEA430EBD
:1028F0004FF0030C0CFA0EFC24EA0C0C4C6804F0AC
:10290000030404FA0EF444EA0C0404604C6814F462
:10291000403FC1D01D4C256E45F001052566246E53
:1029200004F001040194019C4FEA930C0CF10205A0
:10293000144C54F8255003F0030E4FEA8E0E0F246A
:1029400004FA0EF425EA0405B0F1904F3FF46EAF9F
:102950000F4CA0420ED004F58064A0420CD004F5C8
:102960008064A0420AD004F58064A0423FF45CAFCA
:1029700007245CE701245AE7022458E7032456E7BA
:1029800003B0F0BD0000014000040140001002400F
:1029900000040048002331FA03F27AD0F0B52EE0AB
:1029A000042500E0002505FA0CF5A54255D0046881
:1029B0005D004FF0030C0CFA05FC44EA0C040460C3
:1029C0004FEAD30E0EF1080E50F82E4003F0070622
:1029D000B6000F25B54024EA050440F82E4084686F
:1029E00024EA0C048460446824EA02024260C2685B
:1029F00022EA0C02C260013331FA03F248D001220C
:102A00009A4012EA0107F6D04FEA930E0EF1020542
:102A1000204C54F8254003F0030C4FEA8C0C0F2592
:102A200005FA0CF63440B0F1904FBBD01A4DA842D5
:102A30000DD005F58065A8420BD005F58065A8424C
:102A400009D005F58065A842AAD00725ABE7012586
:102A5000A9E70225A7E70325A5E7104C256825EA85
:102A600007052560656825EA07056560E56825EACC
:102A70000705E560A56825EA0705A560054F0EF185
:102A8000020457F8245025EA060547F824508EE73B
:102A9000F0BD704700000140000400480004014000
:102AA0000AB1816170478162704700285FD010B51C
:102AB000044690F84130002B48D0242384F841305C
:102AC0002268136823F0010313606368226823F00F
:102AD000706313612268936823F400439360E36892
:102AE000012B38D0A368226843F404439360E36861
:102AF000022B36D02268536823F4006353602268A7
:102B0000536843F0007343F4004353602268D36872
:102B100023F40043D360236962691343A1692268E7
:102B200043EA0123D360E369216A22680B431360FF
:102B30002268136843F001031360002060642023BF
:102B400084F84130206384F8420010BD80F84030A2
:102B500002F02CFCB1E7A368226843F400439360C1
:102B6000C5E72268536843F400635360C7E7012058
:102B70007047034690F84120202A23D190F8402046
:102B8000012A21D0012280F84020242280F841200F
:102B90000068026822F0010202601868026822F4EC
:102BA00080520260186802680A43026019680A6865
:102BB00042F001020A60202283F84120002083F8BD
:102BC000400070470220704702207047034690F88B
:102BD0004120202A21D190F84020012A1FD0012233
:102BE00080F84020242280F841200068026822F00A
:102BF000010202601868026822F4706242EA01224F
:102C0000026019680A6842F001020A60202283F813
:102C10004120002083F840007047022070470220C6
:102C20007047034610B390F82520022A06D00422EC
:102C3000C263002280F824200120704701680A68DE
:102C400022F001020A6001680A6822F00E020A609E
:102C5000426C02F01C02006C012101FA02F2426097
:102C600083F82510002083F8240070470120704766
:102C700008B590F82530022B03D00423C36301204C
:102C800008BD0268136823F001031360026813682B
:102C900023F00E031360436C03F01C03016C01224C
:102CA00002FA03F34B6080F82520002380F82430DB
:102CB000836B13B198470020E2E70020E0E70000B3
:102CC000024B186800F4C060704700BF00700040FD
:102CD000B0F5007F0FD01F4B1B6803F4C063B3F542
:102CE000806F34D01B4A136823F4C06343F48063BD
:102CF000136000207047174B1B6803F4C063B3F5E3
:102D0000007F20D0134A136823F4C06343F4007398
:102D10001360114B1B68322202FB03F30F4AA2FB24
:102D200003239B0C013300E0013B0A4A526912F471
:102D3000806F01D0002BF7D1064B5B6913F4806FD5
:102D400003D1002070470020704703207047002007
:102D5000704700BF007000405C00002083DE1B4312
:102D6000002807DB00F01F02400901239340024ABC
:102D700042F82030704700BF00E100E000280CDB83
:102D800000F01F024009012393402030034A42F81B
:102D90002030BFF34F8FBFF36F8F704700E100E02B
:102DA000002808DB0901C9B200F1604000F561406C
:102DB00080F80013704700F00F000901C9B2014B01
:102DC0001954704714ED00E000B500F00700C0F1A1
:102DD000070CBCF1040F28BF4FF0040C031D062B99
:102DE0000ED9C31E4FF0FF3E0EFA0CF021EA00018F
:102DF00099400EFA03FE22EA0E0241EA020000BDEB
:102E00000023EFE7074AD36823F4E0631B041B0C9D
:102E1000000200F4E060034343F0BF6343F4003377
:102E2000D360704700ED00E010B50446054BD8684C
:102E3000C0F30220FFF7C8FF01462046FFF7B0FFAE
:102E400010BD00BF00ED00E008B5FFF789FF08BD29
:102E500008B5FFF793FF08BD0138B0F1807F0BD2B2
:102E60004FF0E0235861054AF02182F8231000203A
:102E7000986107221A6170470120704700ED00E059
:102E8000002800F0A18038B5044690F82030D3B176
:102E90002268136843F001031360FEF775FB0546D3
:102EA00023685A6812F0010F10D1FEF76DFB401B2A
:102EB0000A28F5D9636A43F400336362052384F872
:102EC0002030012038BD02F00FFAE1E71A6822F045
:102ED00002021A60FEF758FB054623685A6812F092
:102EE000020F0DD0FEF750FB401B0A28F5D9636A8C
:102EF00043F400336362052384F820300120E1E7C6
:102F0000227E012A3DD01A6822F080021A60637E78
:102F1000012B3BD02268136823F040031360A37E8B
:102F2000012B39D02268136823F020031360E37E5D
:102F3000012B37D02268136843F010031360237FFE
:102F4000012B35D02268136823F008031360637FD8
:102F5000012B33D02268136823F004031360A368A5
:102F6000E268134322691343626913436268013ABA
:102F700021681343CB6100206062012384F8203074
:102F8000A0E71A6842F080021A60C0E7226813685E
:102F900043F040031360C2E72268136843F0200344
:102FA0001360C4E72268136823F010031360C6E7B8
:102FB0002268136843F008031360C8E722681368A7
:102FC00043F004031360CAE701207047704770475D
:102FD0007047704770477047704770477047704739
:102FE0007047704770472DE9F84F054603685C69E4
:102FF000D3F804809F68D3F80CA0D3F81090D3F8CE
:1030000018B014F001063BD017F0010616D00122CB
:103010009A6017F0020F08D117F0040F0CD117F0C7
:10302000080606D04FF4805608E0FFF7CFFF0026D1
:1030300004E0FFF7CEFF01E04FF4006617F4807F55
:103040000DD02B684FF480729A6017F4007F40F027
:10305000968017F4806F00F0968046F4005617F4BF
:10306000803F0DD02B684FF480329A6017F4003FF8
:1030700040F0938017F4802F00F0938046F40046D0
:1030800014F0080F07D01AF0100F04D046F40076A1
:103090002B681022DA6014F0040F03D01AF0080F26
:1030A00040F0898014F0020F05D02B68DB6813F024
:1030B000030F40F0878014F0400F07D019F0100F75
:1030C00004D046F480662B6810221A6114F0200F99
:1030D00002D019F0080F79D114F0100F04D02B682A
:1030E0001B6913F0030F78D114F4003F02D018F0DD
:1030F000100F76D114F4803F02D018F0080F77D16A
:1031000014F4004F37D018F0040F31D014F4807F3E
:1031100004D01BF0010F01D046F0010614F4007F2B
:1031200004D01BF0020F01D046F0020614F4806FA9
:1031300004D01BF0040F01D046F0040614F4006F15
:1031400016D01BF0700B13D0BBF1400F66D056D8D1
:10315000BBF1200F5CD0BBF1300F5CD0BBF1100F86
:1031600001D146F008062A68936923F07003936141
:103170002B6804225A60002E56D1BDE8F88F2846ED
:10318000FFF725FF6BE717F4006F02D046F4804687
:1031900065E72846FFF71EFF61E72846FFF718FF9F
:1031A0006EE717F4002F02D046F4803668E7284611
:1031B000FFF711FF64E72B680822DA602846FFF763
:1031C0000CFF6FE72846FFF707FF74E72B6808221C
:1031D0001A612846FFF703FF7EE72846FFF7FEFE49
:1031E00082E72B6810225A602846FFF7F9FE81E734
:1031F0002B6808225A602846FFF7F3FE80E7BBF1F0
:10320000500F0ED0BBF1600FADD146F48076AAE727
:1032100046F01006A7E746F02006A4E746F0400671
:10322000A1E746F080069EE76B6A33436B6228464F
:10323000FFF7D8FEA1E710B54FF0000C14E011F82D
:103240002C4001EB8C0E9EF801301B0443EA046312
:103250009EF8024043EA04239EF803E043EA0E038B
:10326000046823600CF1010CBCEB920FE7D312F061
:10327000030216D0012A10D0022A15D0032A10D139
:1032800011F82C2001EB8C014B7843EA02230268F1
:10329000138003688A781A7003E0036811F82C2001
:1032A0001A700368186810BD11F82C2001EB8C0C03
:1032B0009CF8013043EA022302681380F1E70023FF
:1032C000B3EB520F18D230B431F823C001EB8304B2
:1032D000648844EA0C4405682C600133B3EB520F58
:1032E000F2D312F0010F03D0026831F823301380BB
:1032F0000368186830BC704712F0010F03D00268F1
:1033000031F823301380036818687047002838D0DC
:1033100010B50446437F1BB30223637723791BBB9D
:103320002368194A5A612268936823F0180393604E
:10333000637913BB23684FF0FF321A6122689368E8
:1033400023F0600361690B4393602268936823F064
:103350008003A1690B43936001236377002010BDB4
:10336000037702F00DF8D7E7E268A168204600F085
:1033700035F80028DCD00120F1E7236822691A61C2
:10338000DCE70120704700BFB71DC10438B5044613
:10339000022343770068836843F001038360236A54
:1033A000022B17D0032B0FD0012B0FD000200123AD
:1033B000637738BD206851F823500560013393428C
:1033C000F8D323681868F2E70023F8E72046FFF7F0
:1033D00032FFECE72046FFF772FFE8E711F0010F3C
:1033E00030D010B41F231C46013B34B103F01F0C36
:1033F00021FA0CFC1CF0010FF5D0182A24D8DFE8C4
:1034000002F00F232323232323231D2323232323FA
:10341000232319232323232323230D00062B17D82B
:103420000368596101688B6823F0180313438B60AC
:1034300000200AE0072BF3D9012006E00F2BEFD97B
:10344000012002E00120704701205DF8044B704725
:103450000120FAE710B4826C012A16D0002301F093
:10346000F20CBCF1F20F15D001F0D40CBCF1D40F6A
:1034700021D001F03801382933D001680A6822EAE6
:1034800003030B605DF8044B704711F08003EBD031
:103490008023E4E743F042030468246814F4800FB7
:1034A00003D112F0080FDFD1C22312F0080FDBD1D5
:1034B00043F03003D8E743F0440C0468246814F464
:1034C000800F04D112F0080F07D143F0C40C12F0A2
:1034D000080F04D14CF03003CBE76346C9E76346DD
:1034E000C7E743F038010268126812F4800F02D176
:1034F00043F0B803C1E70B46BFE703689A6912F0CF
:10350000020F01D000229A6203689A6912F0010F3B
:1035100003D19A6942F001029A61704730B4029D6A
:10352000046860684FEA555C0CF4806C4CF0FF6CEA
:103530004CF4EC2C4CF47F7C4CF0030C20EA0C0097
:10354000C1F3090141EA024119432943084360607C
:1035500030BC7047002871D010B50446836C002B36
:1035600052D00223A3642268136823F0010313607E
:103570006368226823F0706313612268536923F43F
:10358000004353612268536923F000435361236869
:10359000226B5A612268936823F400439360E368C6
:1035A00033B12269012A34D0226843F40443936082
:1035B0002369022B32D02268536843F0007343F42E
:1035C000004353606369A2691343E169226843EAD7
:1035D0000123D360236A626A1343A26A1343E26A37
:1035E0001343A16822680B431360A36AB3F5000F6D
:1035F00019D02268136843F0010313600020E064CF
:1036000001232364A36410BD80F8443001F012FF4D
:10361000A7E7226843F400439360C9E723684FF4A7
:1036200000625A60C7E7E36A13B1B3F5001FE0D147
:103630002268136843F480331360DAE7012070478F
:10364000704770477047704770477047704710B5B4
:10365000044601688B690A6813F4807F09D012F070
:10366000800F06D0C06C40F00100E0644FF4807021
:10367000C86113F4806F0AD012F0800F07D0E16C9C
:1036800041F00801E16421684FF48060C86113F4DF
:10369000007F0AD012F0800F07D0E16C41F00201E8
:1036A000E16421684FF40070C86113F4805F0AD0B0
:1036B00012F0800F07D0E16C41F02001E164216835
:1036C0004FF48050C86113F4005F0AD012F0800FED
:1036D00007D0E16C41F04001E16421684FF40050F3
:1036E000C86113F4006F0AD012F0800F07D0E36CAA
:1036F00043F08003E36423684FF40062DA61E36C13
:10370000BBB9E36CA3B1042B12D013F0400F0CD162
:10371000A36C03F03202322A03D003F04203422B9F
:1037200003D1012323640823A3642046FFF78EFFFF
:1037300010BD2046FFF7E1FEE3E708B5FFF787FF7E
:1037400008BD90F84430012B00F04B8130B583B0B8
:1037500004460D46012380F8443011F0100F16D1B5
:1037600011F0200F27D111F0040F00F081800368C1
:103770005A6A436B1A70436B01334363038F013BF7
:103780000387438F9BB2013B9BB243870EE00368E4
:103790001022DA61C36C43F00403C364FFF7ADFE8B
:1037A000002384F844302046FFF750FF002084F8BF
:1037B000440003B030BDFFF74AFFA36C122B31D099
:1037C000A36C222BF2D115F0040F0FD023685A6A94
:1037D000636B1A70636B01336363238F33B1013BF7
:1037E0002387638F9BB2013B9BB26387D421204622
:1037F000FFF730FE23682022DA612268536823F045
:10380000FF7323F48B3323F4FF7323F0010353601E
:1038100001232364A364002384F844302046FFF787
:1038200010FFC3E7F2212046FFF714FE2368202291
:10383000DA612268536823F0FF7323F48B3323F497
:10384000FF7323F0010353602268136823F0010320
:10385000136001232364A364002384F844302268A6
:10386000136843F0010313602046FFF7E9FE9DE76C
:1038700011F0020F0FD0426B036812789A62436B0B
:1038800001334363038F013B0387438F9BB2013BAB
:103890009BB243878AE711F0800F68D0438F9BB2B9
:1038A000002B30D0038F002B2DD103685968C1F352
:1038B0000901438F9BB2FF2B0CD9C36B03F08063CC
:1038C0000022009243F08073FF22FFF727FEFF23C0
:1038D00023876BE7428F92B20287C36B0020009070
:1038E000D2B22046FFF71AFE23685B6813F0806FA0
:1038F0003FF45CAF238F013B2387638F9BB2013B77
:103900009BB2638752E7638F9BB2002B7FF44EAF6D
:10391000238F002B7FF44AAF23685B6813F0007F8E
:103920007FF444AFA36C122B12D0A36C222B7FF434
:103930003DAFD4212046FFF78DFDA36C2364012306
:10394000A364002384F844302046FFF77AFE2DE775
:10395000F2212046FFF77EFDA36C23640123A364BC
:10396000002384F844302046FFF76AFE1EE711F07A
:10397000400F3FF41BAF438F9BB2002B7FF416AF79
:10398000436BD3B103685B6813F0007F7FF40EAF25
:10399000836C122B17D0836C222B7FF407AFD421BA
:1039A000FFF758FDA36C23640123A364002384F86C
:1039B00044302046FFF745FEF8E60268536843F4BA
:1039C00080435360F2E6F221FFF744FDA36C2364C9
:1039D0000123A364002384F844302046FFF730FE1F
:1039E000E4E60220704790F84430012B00F0468155
:1039F00030B583B004460D46012380F8443011F001
:103A0000100F72D0438F9BB2002B50D1036810224D
:103A1000DA61FFF772FD002384F8443015F0200FBF
:103A200040D0A36C13F0080F3CD023689A6912F0C1
:103A3000040F0ED05A6A636B1A70636B01336363B1
:103A4000238F33B1013B2387638F9BB2013B9BB232
:103A50006387F6212046FFF7FDFC38212046FFF75B
:103A6000F9FC2268536843F40043536022685368AA
:103A700023F0FF7323F48B3323F4FF7323F001034C
:103A8000536023682022DA6123680822DA61002368
:103A9000E363A26C22640122A26484F844302046CD
:103AA000FFF7D3FD002084F8440003B030BD036865
:103AB0001022DA61836C0364836C23F03203836425
:103AC000836C23F042038364F621FFF7C3FCE36CAD
:103AD00043F00403E3642046FFF70FFD002384F85E
:103AE00044302046FFF7B2FD98E711F0080F2AD1C5
:103AF00011F0040F03D111F0800F00F09380A36C3C
:103B000003F04203422B30D0A36C03F03203322B7C
:103B100084D1638F9BB2002B80D0238F002B7FF446
:103B20007DAF638F9BB2FF2B63D9E36B03F08063A0
:103B30000021009143F08073FF222046FFF7EEFC46
:103B4000FF2323876AE7036899699A69186820F058
:103B500008001860002384F84430C2F34642C1F3E1
:103B600000412046FFF770FD58E723685A6A636BEF
:103B70001A70636B01336363238F013B2387638F69
:103B80009BB2013B9BB26387638F9BB2012B13D027
:103B9000638F9BB2E3B9D4212046FFF75BFCA36C93
:103BA0002364A36C23F04203A364002384F844300D
:103BB0002046FFF748FD31E7E36B23F08073E363B2
:103BC000E36B0021009101222046FFF7A7FC25E7C7
:103BD000E36B03F080630021009143F080730122C6
:103BE0002046FFF79BFC2268536823F40043536090
:103BF00014E7628F92B22287E36B00210091D2B268
:103C00002046FFF78BFC23685B6813F0806F3FF45E
:103C100005AF238F013B2387638F9BB2013B9BB290
:103C20006387FBE611F0020F3FF4F8AE438F9BB2BF
:103C300073B1426B036812789A62436B013343633A
:103C4000438F9BB2013B9BB24387038F013B0387AA
:103C5000638F9BB2002B7FF4E1AEF2212046FFF789
:103C6000F9FBA36C2364A36C23F03203A364002349
:103C700084F844302046FFF7E5FCCFE60220704789
:103C800070B5044603689E691D6805F07203722BC7
:103C90001AD005F07403742B39D015F0080F05D134
:103CA00015F0200F02D115F0100F0CD016F0080FF0
:103CB00005D116F0200F02D116F0100F03D0A36C1F
:103CC00013F0080F46D170BD16F0020F0BD116F09D
:103CD000800F08D116F0400F05D116F0200F02D149
:103CE00016F0100FD5D0A36C03F03203322B09D09D
:103CF000A36C03F01203122BCBD131462046FFF701
:103D000020FDC6E731462046FFF76DFEC1E716F0FD
:103D1000040F0BD116F0800F08D116F0400F05D11B
:103D200016F0200F02D116F0100FB6D0A36C03F0DE
:103D30004203422B09D0A36C03F02203222BACD107
:103D400031462046FFF7FDFCA7E731462046FFF746
:103D50004AFEA2E731462046FFF745FEB3E7026878
:103D600052E8003F23F4907342E800310029F6D175
:103D7000026802F1080353E8003F23F00103083210
:103D800042E800310029F3D1036E012B06D0202335
:103D9000C0F880300023036683667047026852E8EB
:103DA000003F23F0100342E800310029F6D1EEE78E
:103DB000E0B138B505462423C3670268136823F0D1
:103DC00001031360036800241C6003685C600368DF
:103DD0009C6001F0D1FBC5F88440EC67C5F88040D9
:103DE0002C666C6685F87840204638BD0120704707
:103DF000704708B5026852E8003F23F0400342E8EC
:103E000000310029F6D12023C3670023C366FFF7E2
:103E1000EFFF08BD704708B5806AFFF7FBFF08BDDC
:103E20007047000070B504460268D3691168906855
:103E300040F60F0C13EA0C0F0AD113F0200F0DD02F
:103E400011F0200F0AD0A36E0BB3204698471EE056
:103E500010F001051CD1AD4E314219D1256E012D56
:103E600000F0A48013F4801F03D010F4800F40F002
:103E7000468113F0800F03D011F0800F40F04A818B
:103E800013F0400F03D011F0400F40F04A8170BD95
:103E900013F0010F09D011F4807F06D001201062C9
:103EA000D4F884200243C4F8842013F0020F09D010
:103EB00045B1226802201062D4F8842042F0040246
:103EC000C4F8842013F0040F09D045B122680420FF
:103ED0001062D4F8842042F00202C4F8842013F067
:103EE000080F0BD011F0200F00D13DB1226808203F
:103EF0001062D4F884200243C4F8842013F4006FC5
:103F00000CD011F0806F09D022684FF4006010626D
:103F1000D4F8842042F02002C4F88420D4F884200D
:103F2000002AB4D013F0200F06D011F0200F03D0D8
:103F3000A36E0BB120469847D4F8842023689B6871
:103F400013F0400F02D112F0280F28D02046FFF7BF
:103F500006FF23689B6813F0400F1CD0226802F113
:103F6000080353E8003F23F04003083242E80031E1
:103F70000029F3D1636F53B1654A9A63606FFEF70E
:103F800077FE002883D0606F836B98477FE72046D9
:103F9000FFF740FF7BE72046FFF73CFF77E720462F
:103FA000FFF738FF0023C4F8843070E713F0100FD8
:103FB0003FF458AF11F0100F3FF454AF10231362C9
:103FC00023689B6813F0400F5FD0616F0A685368E5
:103FD0009BB2002B49D0B4F85800984245D9A4F8B8
:103FE0005A300B681B6813F0200F31D1226852E859
:103FF000003F23F4807342E800310029F6D12268A3
:1040000002F1080353E8003F23F00103083242E8BD
:1040100000310029F3D1226802F1080353E8003F80
:1040200023F04003083242E800310029F3D1202375
:10403000C4F8803000232366226852E8003F23F052
:10404000100342E800310029F6D1606FFEF7E9FD68
:1040500002236366B4F85810B4F85A309BB2C91AF8
:1040600089B22046FFF7DCFE11E7B4F858109942F8
:104070007FF40DAF136813F0200F3FF408AF022355
:1040800063662046FFF7CCFE01E7B4F85810B4F899
:104090005A309BB2C91A89B2B4F85A309BB2002B7D
:1040A0003FF4F5AE00293FF4F2AE226852E8003F3B
:1040B00023F4907342E800300028F6D1226802F120
:1040C000080353E8003F23F00103083242E80030C0
:1040D0000028F3D12023C4F8803000232366A36690
:1040E000226852E8003F23F0100342E80030002825
:1040F000F6D1022363662046FFF792FEC7E64FF42F
:1041000080131362204600F07DFCC0E6200100040D
:10411000173E0008E36E002B3FF4B9AE20469847E7
:10412000B5E62046FFF765FEB1E600BF08B5B0F87A
:104130005C30D0F88020222A05D00268936943F0D1
:104140000803936108BD0268516ADBB2426D0B40FF
:104150001370436D01334365B0F85A309BB2013B95
:104160009BB2A0F85A30B0F85A309BB2002BE9D17C
:10417000026852E8003F23F4907342E800310029BE
:10418000F6D1026802F1080353E8003F23F001036F
:10419000083242E800310029F3D12023C0F88030F2
:1041A0000023836643660368164A93420CD05B681B
:1041B00013F4000F08D0026852E8003F23F0806338
:1041C00042E800310029F6D1036E012B16D10023FD
:1041D0000366026852E8003F23F0100342E8003112
:1041E0000029F6D10368DA6912F0100F01D010220D
:1041F0001A62B0F85810FFF713FEA3E700F03EFE76
:10420000A0E700BF0080004008B5B0F85C20D0F8FF
:104210008030222B05D00268936943F00803936134
:1042200008BD03685B6A416D13400B80436D023328
:104230004365B0F85A309BB2013B9BB2A0F85A30AC
:10424000B0F85A309BB2002BEAD1026852E8003F26
:1042500023F4907342E800310029F6D1026802F19C
:10426000080353E8003F23F00103083242E800311D
:104270000029F3D12023C0F88030002383664366F1
:104280000368164A93420CD05B6813F4000F08D001
:10429000026852E8003F23F0806342E800310029C1
:1042A000F6D1036E012B16D100230366026852E893
:1042B000003F23F0100342E800310029F6D10368E3
:1042C000DA6912F0100F01D010221A62B0F85810FB
:1042D000FFF7A6FDA4E700F0D1FDA1E700800040B4
:1042E00010B5044683680269134342691343C269E7
:1042F000134301680868944A02401A430A6022681E
:10430000536823F44053E1680B435360A16922686A
:104310008E4B9A4201D0236A1943936823F4306389
:104320000B43936023688A4A93421FD0894A934281
:1043300030D0894A934246D0844A934255D01022C5
:1043400082498B427AD0E069B0F5004F00F0A68038
:10435000082A00F20981DFE812F0CE00E200CC006A
:104360000701E500070107010701E80002F55842CF
:10437000D2F8882002F00302032A09D8DFE802F00D
:1043800002044A060122DBE70422D9E70822D7E724
:104390001022D5E702F5E632D2F8882002F00C02AE
:1043A0000C2A0ED8DFE802F0070D0D0D090D0D0DDA
:1043B000380D0D0D0B000022C2E70422C0E70822D1
:1043C000BEE71022BCE702F5E432D2F8882002F002
:1043D0003002202A22D004D812B3102A22D104227B
:1043E000AEE7302A20D10822AAE702F5C832D2F877
:1043F000882002F44062B2F5006F17D005D8BAB138
:10440000B2F5806F16D104229AE7B2F5406F13D14E
:10441000082295E7022293E7022291E702228FE722
:1044200000228DE710228BE7102289E7022287E71E
:10443000002285E7102283E7102281E7082A77D837
:10444000DFE802F0087610760D76767605004FF4F8
:10445000004008E0FDF7AEFD28B9002085E0FDF73B
:1044600055F9F9E73D48626802EB4203834261D89F
:10447000B0EB023F60D8010E00025308C0184FF0A5
:10448000000341F10001FBF7A3FEA0F54072344B9D
:104490009A4253D82368D860002066E0082A4FD893
:1044A000DFE802F00721054E244E4E4E0B002B484C
:1044B00003E0FDF77FFD002844D06268530803EB5A
:1044C0004003B3FBF2F3A3F110014FF6EF729142F8
:1044D00048D89AB222F00F02C3F342031343226872
:1044E000D360002041E0FDF777FDE4E7FDF70EF92A
:1044F000E1E71A4803E0FDF75DFD002839D0636865
:1045000000EB5300B0FBF3F0A0F110024FF6EF7395
:104510009A4230D8236880B2D860002025E0FDF7A9
:104520005BFDEAE7FDF7F2F8E7E74FF40040E6E766
:1045300001201AE0012018E0012016E0012014E01B
:10454000012012E0002010E0F369FFEF008000403E
:104550000038014000440040004800400024F400BE
:10456000FFFC0F00012000E001200023A366E366AA
:1045700010BD0020F9E70120F7E700BF436A13F000
:10458000080F06D00268536823F40043416B0B43C5
:104590005360436A13F0010F06D00268536823F496
:1045A0000033816A0B435360436A13F0020F06D055
:1045B0000268536823F48033C16A0B435360436A33
:1045C00013F0040F06D00268536823F48023016BB4
:1045D0000B435360436A13F0100F06D002689368D0
:1045E00023F48053816B0B439360436A13F0200FD5
:1045F00006D00268936823F40053C16B0B439360A9
:10460000436A13F0400F0AD00268536823F4801302
:10461000016C0B435360036CB3F5801F0BD0436AEE
:1046200013F0800F06D00268536823F40023816CD6
:104630000B43536070470268536823F4C003416C16
:104640000B435360EBE72DE9F84305460E4617464A
:104650009946DDF820802B68DC6936EA04040CBF3B
:1046600001240024BC4236D1B8F1FF3FF3D0FCF75F
:104670008BFFA0EB0900404530D8B8F1000F2FD0D8
:104680002B681A6812F0040FE5D0802EE3D0402E7C
:10469000E1D0DA6912F0080F11D1DA6912F4006F73
:1046A000D9D04FF400621A622846FFF758FB202346
:1046B000C5F88430002385F8783003200CE0082406
:1046C0001C622846FFF74BFBC5F88440002385F8A1
:1046D0007830012000E00020BDE8F8830320FBE7EC
:1046E0000320F9E72DE9F04182B01E46C36F202B6D
:1046F0005BD104460D46904600295AD00AB90120E4
:1047000054E00023C0F884302123C367FCF73CFF4A
:104710000746A4F85080A4F85280A368B3F5805FE0
:1047200002D04FF000081AE0236963B34FF000088D
:1047300015E02023E367032038E038F8023B2268C5
:10474000C3F308039362E36F03F02103212B32D1FB
:10475000B4F8522092B2013A92B2A4F85220B4F8BE
:1047600052309BB293B100963B46002280212046F6
:10477000FFF769FF0028DCD1002DDED015F8012BF2
:1047800023689A62DFE7A8460025E8E700963B46E3
:10479000002240212046FFF756FF10B92023E3678F
:1047A00004E02023E367032000E0022002B0BDE81C
:1047B000F0810120FAE70120F8E730B583B0044624
:1047C0000023C0F88430FCF7DFFE0546226812683B
:1047D00012F0080F0FD123681B6813F0040F26D1C5
:1047E0002023E367C4F8803000202066606684F8E8
:1047F000780003B030BD6FF07E4300930346002283
:104800004FF400112046FFF71EFF0028E3D0226876
:1048100052E8003F23F0800342E800310029F6D13E
:104820002023E367002384F878300320E1E76FF06A
:104830007E4300932B4600224FF480012046FFF771
:1048400002FF0028CCD0226852E8003F23F4907386
:1048500042E800310029F6D1226802F1080353E84A
:10486000003F23F00103083242E800310029F3D170
:104870002023C4F88030002384F878300320B8E780
:1048800068B310B50446C36F03B32423E3672268FB
:10489000136823F001031360636AE3B92046FFF74E
:1048A0001FFD012811D02268536823F49043536000
:1048B0002268936823F02A0393602268136843F008
:1048C000010313602046FFF778FF10BD80F87830B1
:1048D00000F006FED9E72046FFF750FEDEE7012094
:1048E000704700004165A0F85820A0F85A20002326
:1048F00083668368B3F5805F06D0A3B9036973B993
:10490000FF23A0F85C3014E0036923B940F2FF13E1
:10491000A0F85C300DE0FF23A0F85C3009E07F23B5
:10492000A0F85C3005E0B3F1805F27D00023A0F849
:104930005C300023C0F884302223C0F88030026845
:1049400002F1080353E8003F43F00103083242E854
:1049500000310029F3D18368B3F5805F18D0144B80
:1049600083660369D3B1026852E8003F43F4907351
:1049700042E800310029F6D10020704703691BB9D5
:104980007F23A0F85C30D4E73F23A0F85C30D0E769
:104990000369002BE3D1074B8366E2E7026852E824
:1049A000003F43F0200342E800310029F6D1E3E75D
:1049B0002D4100080942000838B5D0F88030202B7E
:1049C00017D1C1B1CAB10023036603680C4CA342DE
:1049D0000CD05B6813F4000F08D0046854E8003F63
:1049E00043F0806344E80035002DF6D1FFF77AFFED
:1049F00000E0022038BD0120FCE70120FAE700BFFB
:104A00000080004070470000BFF34F8F0549CA681F
:104A100002F4E062044B1343CB60BFF34F8F00BF3F
:104A2000FDE700BF00ED00E00400FA0508B5FFF760
:104A3000EBFF000008B5012202490348FFF7BCFF65
:104A400008BD00BFFC0200200003002070B588B044
:104A500003AD002403940494059406940794184B22
:104A6000DA6C42F08002DA64DA6C02F080020092C2
:104A7000009ADA6C42F00202DA64DA6C02F00202A6
:104A80000192019ADA6C42F00102DA64DB6C03F005
:104A900001030293029B0B4E01224FF4004130466A
:104AA000FDF7FEFF4FF400430393012304930594A5
:104AB000069429463046FDF789FE08B070BD00BF58
:104AC000001002400004004838B5154BD3F8002808
:104AD00003F580531C685D6803F1236303F56D33B0
:104AE00003F51E739A420BD104F16043B3F5803F86
:104AF00006D805F17843A3F52043B3F5583F00D31A
:104B000038BD72B60748FFF753F9FCF78BFDFCF789
:104B1000DFFC054B054A9A6084F30888A847EFE755
:104B2000009000080003002000ED00E000A0000855
:104B300010B586B000230193FDF7CCFC18B1012419
:104B4000204606B010BD00230293012303931423D3
:104B500004936C23059301A902A8FDF7BFFD044649
:104B6000FDF7D0FC002CEBD00124E9E700B583B0C1
:104B70000023019301AA034900F0DAFE9DF8040026
:104B800003B000BD346E00082DE9F84310F0070FA4
:104B90003AD107460D46164612F0070402D04FF0F0
:104BA000010833E0FDF796FC804678BBB44228D27A
:104BB0002A5D05EB040C9CF8013042EA03229CF8C4
:104BC000023042EA03429CF803009CF804309CF84F
:104BD000051043EA01239CF8061043EA01439CF8C0
:104BE000071042EA006243EA0163E1190020FDF781
:104BF000C7FC814608B90834D8E7FDF783FCC846EE
:104C000004E0FDF77FFC01E04FF001084046BDE8FD
:104C1000F883000003783A2B01D0042070472DE977
:104C2000F0438BB081460130FFF7A0FF054609F144
:104C30000300FFF79BFF044609F10500FFF796FF0D
:104C400006B246EA04260FFA86F8B6B209F1070062
:104C5000FFF78CFF074600240BE060000930484452
:104C6000FFF784FF04F128036B4403F8200C0134A0
:104C7000E4B2AC42F1D3680009304844FFF776FF54
:104C800005EB162258FA82F257FA82F2D2B20023CA
:104C900008E003F12801694411F8201C0A44D2B24B
:104CA0000133DBB2AB42F4D3104410F0FF0030D13B
:104CB00067B1042F07D19DF808209DF8093043EA19
:104CC0000223154A13600BB0BDE8F083124B1B683A
:104CD00046EA03490026B54219D9AC1B082C28BF67
:104CE00008244FF0FF3300930193E4B2224602A957
:104CF0003144684600F0B4FE0822694606EB09001C
:104D0000FFF742FF08B92644E5E70520DBE7384610
:104D1000D9E70320D7E700BFF4010020000000001E
:104D200010B586B000230193FDF7D4FBE8B900234A
:104D300002930123039313220492059301A902A86D
:104D4000FDF7CCFC68B90DA3D3E900230A49002084
:104D5000FDF716FC0446FDF7D5FB44B9204606B026
:104D600010BDFDF7CFFB0624F8E70624F6E706247E
:104D7000F4E700BFAFF300800098000878563412C3
:104D80007856341210B502460C4605490548FEF720
:104D9000FDFAA04201D1002010BD0720FCE700BFB2
:104DA00000A000082C04002010B582B00346084A79
:104DB0000521684600F086FD6846FBF7A9FB6423E1
:104DC00082B269460348FFF78DFC02B010BD00BFF8
:104DD000386E00080003002038B504462249FBF76E
:104DE0008DFB00283CD021492046FBF787FB80B192
:104DF0002378502B10D0432B15D01D492046FBF7AC
:104E00007DFB40B31B492046FBF778FB30B3FF2006
:104E100027E0FFF78DFE24E062782C2AEBD1A01C5E
:104E2000FFF7F8FE1DE063782C2BE6D1124D2946E2
:104E3000A01C00F0A9FD00F040FC0446294600201B
:104E400000F0A2FD0A22002100F032FD01462046BA
:104E5000FFF798FF05E0FFF763FF02E0FFF7E6FDCD
:104E60000020FFF7A1FF38BD3C6E0008406E00082F
:104E7000486E00084C6E0008446E000808B50268D1
:104E8000144B9A4200D008BD134B1B780A2B0BD051
:104E90000D2B09D0114A1278FF2A17D0501C0F4948
:104EA00008700F498B540BE00C4B1B780C4A002107
:104EB000D15413B10B4B01221A70084B00221A7007
:104EC000012205490848FFF777FDDCE7034B002284
:104ED0001A70F5E700380140FC020020F9010020BB
:104EE000FC010020F80100200003002072B6FEE75C
:104EF00000B587B0002300930193029303930493BA
:104F000005932648264A02604FF4001242608360EF
:104F1000C3600122026104214161037642760321CC
:104F2000C16180F820308362C36280F8303043630F
:104F300080F838201C21C1634FF480710164436400
:104F40008264FBF7A7FE00BB164B00930623019378
:104F5000072302937F2303930423049300230593E1
:104F600069460E48FCF798F888B90C230193694606
:104F70000A48FCF791F860B9122301936946074883
:104F8000FCF78AF838B907B000BDFFF7AFFFFFF7AD
:104F9000ADFFFFF7ABFFFFF7A9FF00BF78040020CC
:104FA000000004500100008008B50D480D4B03605F
:104FB0000823436000238360C3604FF4C022026172
:104FC0004FF4801242610376012242768376C276E4
:104FD00003774377FDF754FF00B908BDFFF786FF5D
:104FE000500400200064004008B51148114B0360D4
:104FF000114B4360002383600122C260036143615F
:105000008361C3610362FDF750FD50B90021084878
:10501000FDF7AFFD38B900210548FDF7D7FD20B9F0
:1050200008BDFFF763FFFFF761FFFFF75FFF00BFFA
:10503000D803002000540040E49CD11008B50E486D
:105040000E4B03600E4B4360002383601622C26048
:105050000122026143618361C361036243624FF4D1
:1050600000028262C362074B0363FEF773FA00B962
:1050700008BDFFF73BFF00BF880300200058004039
:10508000E49CD110E793D08308B50B480B4B036029
:105090004FF46133436000238360C36003610C22DB
:1050A00042618361C36103624362FFF7E9FB00B9B8
:1050B00008BDFFF71BFF00BF0003002000380140C0
:1050C00008B50848084B036000230371437143612E
:1050D000836101230362FEF719F900B908BDFFF7E8
:1050E00005FF00BF2C0400200030024000B597B03F
:1050F0004422002105A8FBF76DFB002300930193D8
:105100000293039304934FF40070FDF7E1FD10BB8D
:10511000012205924FF48033069302230F9303215B
:105120001091119214221292072213921493159344
:1051300005A8FCF73FFB80B90F23009303230193DD
:10514000002302930393049304216846FCF768FE4E
:1051500028B917B000BDFFF7C9FEFFF7C7FEFFF77C
:10516000C5FE000008B5FCF7F3F9FFF7BFFFFFF736
:105170006DFCFFF7BDFEFFF717FFFFF735FFFFF7E9
:105180005DFFFFF781FFFFF79BFFFFF79DFCFFF738
:1051900051FC054B1B78002BFBD00448FFF71CFE8D
:1051A000014B00221A70F4E7F8010020FC010020F6
:1051B000FEE7FEE7FEE7FEE7FEE770477047704751
:1051C00008B5FCF7D5F908BD08B50248FBF749FE5C
:1051D00008BD00BF7804002008B50248FDF703FFB2
:1051E00008BD00BF5004002008B50248FDF7FBFED3
:1051F00008BD00BF5004002008B50248FDF7F3FECB
:1052000008BD00BF5004002008B50248FEF738FD75
:1052100008BD00BF8803002008B50248FEF78DFADC
:1052200008BD00BF8803002008B50248FEF7FAFD5C
:1052300008BD00BF0003002082B00A4B1A6E42F086
:1052400001021A661A6E02F001020092009A9A6D2B
:1052500042F080529A659B6D03F080530193019B4D
:1052600002B070470010024010B598B004465C22AE
:10527000002101A8FBF7AEFA2268194B9A4201D02F
:1052800018B010BD4FF4804301934FF08053159335
:105290000323029301230393082304930723059315
:1052A0000223069307934FF08073089301A8FCF73D
:1052B0005DFF90B90B4BDA6C42F40052DA64DB6CA0
:1052C00003F400530093009B002206211220FDF7F7
:1052D000ABFD1220FDF7B8FDD2E7FFF707FEE9E7C7
:1052E000000004500010024010B588B00023039362
:1052F00004930593069307930268204B9A4201D0CA
:1053000008B010BD03F5D6339A6D42F000729A656D
:105310009A6D02F000720192019ADA6C42F0010279
:10532000DA64DB6C03F001030293029B4FF4C05379
:10533000039302230493032406940923079303A9E8
:105340004FF09040FDF742FA002221461320FDF76E
:105350006BFD1320FDF778FD002221461420FDF798
:1053600063FD1420FDF770FD002204211620FDF7D7
:105370005BFD1620FDF768FDC2E700BF006400403A
:105380000268094B9A4200D0704782B0A3F50053DF
:105390009A6C42F480529A649B6C03F4805301939C
:1053A000019B02B0704700BF0030024010B59EB0B4
:1053B0000446002119911A911B911C911D915C22A8
:1053C00002A8FBF707FA2268184B9A4201D01EB0D8
:1053D00010BD4023029302A8FCF7C8FE18BB144C72
:1053E000E36C43F00103E364E36C03F00103009317
:1053F000009B4FF4C063199312231A9300231B934D
:1054000003231C9304231D9319A94FF09040FDF72B
:10541000DDF9A36D43F40013A365A36D03F400133A
:105420000193019BD3E7FFF761FDD8E700540040EB
:105430000010024030B59FB00446002119911A9126
:105440001B911C911D915C2202A8FBF7C3F92268F5
:10545000204B9A4201D01FB030BD8023029302A896
:10546000FCF784FE002832D11B4CE36C43F00203AE
:10547000E364E36C03F002030093009B4FF440638A
:10548000199312231A9300251B9503231C930423BD
:105490001D9319A91148FDF799F9A36D43F48003F1
:1054A000A365A36D03F480030193019B2A460121A8
:1054B0002120FDF7B9FC2120FDF7C6FC2A46022178
:1054C0002220FDF7B1FC2220FDF7BEFCC3E7FFF769
:1054D0000DFDC9E7005800400010024000040048DC
:1054E00010B59EB00446002119911A911B911C9190
:1054F0001D915C2202A8FBF76DF922681B4B9A42B2
:1055000001D01EB010BD0123029302A8FCF72EFEAD
:1055100048BB174B1A6E42F480421A661A6E02F4A8
:1055200080420092009ADA6C42F00202DA64DB6C8C
:1055300003F002030193019BC023199302231A93E2
:1055400000241B9403231C9307231D9319A90948C6
:10555000FDF73CF9224605212520FDF765FC2520B5
:10556000FDF772FCCDE7FFF7C1FCD2E70038014040
:10557000001002400004004808B50268084B9A4237
:1055800000D008BD074A136E23F480431366C02180
:105590000548FDF7FFF92520FDF75AFCF1E700BFAC
:1055A00000380140001002400004004810B50346D6
:1055B0000C4A0D490D48006840B10C48006803448E
:1055C000521A934206D8094A136010BD0748084C86
:1055D0000460F2E700F03EFA0C2303604FF0FF3066
:1055E000F3E700BF00C0002000040000DC0400203E
:1055F000E00400200120704708B500F02BFA1623C4
:1056000003604FF0FF3008BD08B54FF0FF31FFF7E2
:10561000F3FFFEE770B50C461646002506E0AFF333
:105620000080214601F8010B01350C46B542F6DB3E
:10563000304670BD70B50C461646002504E014F8DF
:10564000010BAFF300800135B542F8DB304670BD89
:105650004FF0FF3070474FF400534B60002070470D
:105660000120704700207047DFF834D0FBF7DAFAEA
:105670000C480D490D4A002302E0D458C4500433AD
:10568000C4188C42F9D30A4A0A4C002301E0136083
:105690000432A242FBD3FBF7EBF8FFF763FDFEE712
:1056A00000C0002000000020880000206870000872
:1056B00088000020E0040020FEE70A22002100F01C
:1056C0007DB80000242B2DE9F0478646904601D88E
:1056D000012B06D100F0BEF9162303600020BDE8BF
:1056E000F08734480D462A4615F8014B065D16F042
:1056F0000806F8D12D2C10D12C780126951C33F0FA
:10570000100215D1302C0DD12A7802F0DF02582A70
:1057100008D16C78023510230AE02B2C04BF2C78BA
:10572000951CECE7002BF6D1302C14BF0A2308237C
:1057300006F1004C0CF1FF3C0022BCFBF3F91046D3
:1057400003FB19CAA4F13007092F0FD83C46A34226
:105750001BDD571C07D0814514D301D1A24511DBB5
:1057600000FB0340012215F8014BEBE7A4F14107D0
:10577000192F01D8373CEAE7A4F16107192F04D8A3
:10578000573CE4E74FF0FF32EDE7531C08D12223EA
:10579000CEF800306046B8F1000FA0D0691E06E0D8
:1057A00006B14042B8F1000F99D0002AF6D1C8F8EE
:1057B000001094E74F6E0008FFF784BF13460A46B7
:1057C000014602480068FFF77DBF00BF0C000020C3
:1057D0002DE9F043344E86460D46284615F8014B18
:1057E000375D17F00807F8D12D2C10D12C78012740
:1057F000851C33F0100015D1302C0DD1287800F025
:10580000DF00582808D16C78023510230AE02B2CD1
:1058100004BF2C78851CECE7002BF6D1302C14BF8C
:105820000A2308234FF0FF380026B8FBF3F803FBE8
:1058300008F96FEA09093046A4F1300CBCF1090FF0
:1058400010D86446A3421EDDB6F1FF3F07D0804565
:1058500016D301D1A14513DB00FB0340012615F847
:10586000014BE9E7A4F1410CBCF1190F01D8373C19
:10587000E8E7A4F1610CBCF1190F04D8573CE1E74B
:105880004FF0FF36EBE7731C06D12223CEF8003031
:10589000304632B9BDE8F08307B14042002AF9D062
:1058A00006B1691E1160F5E74F6E0008FFF790BF63
:1058B00013460A46014602480068FFF789BF00BF49
:1058C0000C0000200CB430B5184B0C1E1D689DB0A8
:1058D00008DA8B232B604FF0FF301DB0BDE830405D
:1058E00002B070474FF40273ADF814304FF000036C
:1058F0001B9314BF04F1FF332346049307934FF621
:10590000FF7302900690ADF81630209A21AB02A9E1
:105910002846019300F038F9431CBCBF8B232B6051
:10592000002CDAD0029B00221A70D6E70C0000206F
:105930000EB470B59DB021AC00254FF4017254F83F
:10594000046BADF814201B9502900690FAF7E0FD69
:105950000B4B039007900B480B934FF6FF73ADF87A
:1059600016303246234602A900680F95149501941B
:1059700000F05CFA1DB0BDE8704003B0704700BF96
:105980006B0700080C0000201B4B2DE9F0411C6840
:10599000656C06460F463DBB502000F08DF8024670
:1059A000606420B9154B16485B2100F067F88560EC
:1059B000626CC0E90055C2E90355626CC2E9055545
:1059C000626CC2E90A55626CC2E90C55626CC2E9AC
:1059D0000E55626CC2E91055626CC2E91255626CD8
:1059E00015772B46656C6B622A4639463046012393
:1059F000BDE8F04100F006B80C0000204F6F000831
:105A0000666F0008F0B5044608B9146844B1204632
:105A100014F8015B0F4617F8016B1EB965B91560E4
:105A2000002005E0B542F6D1002BF0D114600370E0
:105A3000F0BD1C460CE01DB9274614F8013B0E468C
:105A400016F8015BAB42F6D1002BF2D000233B707D
:105A50001460EDE7014B1868704700BF0C00002090
:105A60000A44914200F1FF3300D1704710B511F89C
:105A7000014B03F8014F9142F9D110BD1FB51446F7
:105A80001A46094B1B680546D8684CB1074B009174
:105A9000CDE9013406492B4600F026FE00F0C2FE97
:105AA000044B1C46F3E700BF0C000020C06F000849
:105AB000CD6F0008FB6F0008024B01461868FAF72B
:105AC0006BBF00BF0C0000202DE9F0478E681F4619
:105AD000BE4282460C469046334653D8B1F90C007C
